:1000000000800020BD010000E52E00009D2E0000B4
:100010009D2E00009D2E00009D2E00009D2E0000B4
:100020009D2E00009D2E00009D2E0000E52E00005C
:10003000E52E00009D2E0000694400006D44000084
:10004000E52E0000E52E0000E52E0000E52E000064
:10005000E52E0000E52E0000E52E0000E52E000054
:10006000E52E0000E52E0000E52E0000E52E000044
:10007000E52E0000E52E0000E52E0000E52E000034
:10008000E52E0000E52E0000E52E0000E52E000024
:10009000E52E0000E52E0000E52E0000E52E000014
:1000A000094F0000154F0000E52E0000E52E00006E
:1000B000E52E0000E52E0000E52E0000E52E0000F4
:1000C000E52E0000E52E0000E52E0000E52E0000E4
:1000D000E52E0000E52E0000E52E0000E52E0000D4
:1000E000E52E0000E52E0000E52E0000E52E0000C4
:1000F000E52E0000E52E0000E52E0000E52E0000B4
:10010000E52E0000E52E0000E52E0000E52E0000A3
:10011000E52E0000E52E0000E52E0000E52E000093
:10012000E52E0000E52E0000E52E0000E52E000083
:10013000E52E0000E52E0000E52E0000E52E000073
:10014000E52E0000E52E0000E52E0000E52E000063
:10015000052D0000192D00002D2D0000412D00005F
:10016000815D00000D350000E52E0000E52E000049
:10017000E52E0000E52E0000E52E0000E52E000033
:10018000E52E0000E52E0000E52E0000E52E000023
:10019000E52E0000E52E0000E52E0000E52E000013
:1001A000E52E0000E52E0000E52E0000E52E000003
:1001B000E52E0000E52E0000E52E0000564B4CF227
:1001C000205210B51A804DF628121A8000BF00BFC9
:1001D00002F08CFE514B4FF010621A60504A9A6048
:1001E000504ADA60504A136813F4807304D14F49BF
:1001F0000B604FF4A85313604D4B1A78110703D5C9
:100200001A7842F008021A704A4B4B492A221A7097
:100210004A4A4B4B8B4204D252F8040F43F8040B6A
:10022000F8E7484B484900228B4202D243F8042B9E
:10023000FAE74649464A002352F8230041F82300D2
:1002400001336F2BF8D1434B434A802103F8011B44
:100250009342FBD1414B3D4A1A60414B8A221A70AE
:10026000A3F5805324225A70A0221A709A7992071B
:10027000FCD59A79D406FCD43A4A937903F00C035E
:10028000082B384BF9D105221A7143225A719A79F9
:100290009006FCD5334A9179324B4906FBD5324A58
:1002A0004FF0817111600521516020221A709A79F6
:1002B00002F00C020C2AFAD12C4B2D4A1A602D4B5D
:1002C0002D4A1A6000225A60072243F8042C2B4A58
:1002D000C3F80C2D62B602F0EDFF144B1B68DA0771
:1002E00005D5274802F078FF264B274A1A60274B8E
:1002F0001B785B0609D5234C234B22689A4204D114
:100300001F4802F069FF0023236006F08BFE02F015
:10031000F3FD02F021FDFEE70E2005403080044091
:10032000823F04000100002B10D0034014D0034092
:1003300002D0074000E007407094FF1F90E30000E8
:100340002087FF1F7094FF1FD499FF1F0082FF1F9B
:100350000000000000E400E05FE400E008ED00E0E1
:1003600000500640004006404480044004800440A1
:10037000C010050014E000E03F190100000020203B
:1003800082BA0E5F1CE00340A5C3945A00F00740F8
:10039000FFFFFFFFFFFFFFFFFFFFFFFFFFFFFFFF6D
:1003A000FFFFFFFFFFFFFFFFFFFFFFFFFFFFFFFF5D
:1003B000FFFFFFFFFFFFFFFFFFFFFFFFFFFFFFFF4D
:1003C000FFFFFFFFFFFFFFFFFFFFFFFFFFFFFFFF3D
:1003D000FFFFFFFFFFFFFFFFFFFFFFFFFFFFFFFF2D
:1003E000FFFFFFFFFFFFFFFFFFFFFFFFFFFFFFFF1D
:1003F000FFFFFFFFFFFFFFFFFFFFFFFFFFFFFFFF0D
:10040000FFFFFFFFFFFFFFFFFFFFFFFFDEF9FFFF23
:1004100010B5054C237833B9044B13B10448AFF33E
:1004200000800123237010BD7094FF1F00000000A6
:100430008CE30000084B10B51BB108490848AFF326
:1004400000800848036803B910BD074B002BFBD0A0
:10045000BDE81040184700BF000000007494FF1F63
:100460008CE300007094FF1F0000000070B5161EA2
:1004700007DD0C468D1914F8010B03F0E1FEAC42C8
:10048000F9D1304670BD00BF70B588B01121079119
:100490000C4E0D4C0D480E4A0E4B03904FF48075D8
:1004A00000210291019200930696059504940A4B4F
:1004B0000A4A0B490B4800F025F908B0BDE8704026
:1004C00002F0D0B98C94FF1FB094FF1F08D6000033
:1004D00014D6000018D6000040D800000088FF1F86
:1004E000A4DB0000B095FF1F10B5274C274920461C
:1004F000072200F04BFC20460722254900F046FC6D
:1005000020460622234900F041FC204608222249C9
:1005100000F03CFC20461922204900F037FC204620
:1005200012221F4900F032FC204610221D4900F023
:100530002DFC204610221C4900F028FC20461222E7
:100540001A4900F023FC20460F22194900F01EFC36
:1005500020460F22174900F019FC204611221649A7
:1005600000F014FC20460E22144900F00FFC204637
:100570000E22134900F00AFC204610221149BDE862
:10058000104000F003BC00BFB095FF1F2CD6000048
:1005900034D600003CD6000044D6000050D60000FF
:1005A0006CD6000080D6000094D60000A8D60000CB
:1005B000BCD60000CCD60000DCD60000F0D600008F
:1005C00000D7000010D7000008B5FFF78DFF4FF4EB
:1005D0007A70BDE8084002F01DBE00BFC36A5B68C8
:1005E000184700BF01220149FFF7F8BF24D70000D8
:1005F000F0B58DB0144600930646134608462122F6
:1006000003A900F051FC023CE4B20E2C054618D8B8
:10061000336B164A002B52F824701BDD3046FFF76F
:10062000E1FF04462FB1394602223046FFF7D6FFDC
:100630000444A5B92846336B2044013333630DB01D
:10064000F0BD336B002B07DD3046FFF7CBFF0027F3
:100650000446E7E70024E5E70024002DEAD02A4617
:1006600003A93046FFF7BAFFE5E700BF44D7000013
:1006700010B582B09DF81040002B3AD009780639A9
:1006800005292DD8DFE801F00E18222C030310688D
:1006900019460A223CBB00F09FFC003018BF012025
:1006A00002B010BD19461068102200F095FC003011
:1006B00018BF012002B010BD19461068082200F0D2
:1006C0008BFC003018BF012002B010BD1946106825
:1006D000022200F081FC003018BF012002B010BDE2
:1006E000002002B010BD00F06BFC003018BF0120EC
:1006F000D6E70349019300F037FF019B1846CFE787
:10070000CAFEFFFF2DE9F04F85B00446149D019508
:10071000BDF95450109E029511AD00968B46E0CD68
:10072000924600219822DDF83890DDF83C80039352
:1007300007F002F8039BE365029A009B0199C4F855
:1007400000B02046C4F82CA0C4F88490C4F8888077
:10075000C4F88C30C4F89050E660676005B0BDE81E
:10076000F04F00F07DBE00BFF8B5036B002B0546CF
:100770000F46144609DDFFF735FF064644B920460B
:100780002B6B013330442B63F8BD0026002CF6D0D0
:10079000224639462846FFF721FFF1E701230A22C6
:1007A000FFF726BF70B5054688B008462022694687
:1007B00000F0F0FB2B6B002B04460BDD2846FFF707
:1007C00011FF06464CB920462B6B304401332B6396
:1007D00008B070BD0026002CF5D022466946284698
:1007E000FFF7FCFEF0E700BF2DE9F0478246B1F9C4
:1007F00000000D4600F0BCFE804607F041FA0123E0
:100800000746B5F9001050460A22FFF7F1FEDAF864
:100810003030002B81463FDD5046FFF7E3FE0546B2
:10082000012222495046FFF7D9FEFF2F284428BF56
:10083000FF278144FF260FE0A04601221B495046B6
:10084000FFF7CCFEE3433F1B1E444044B74205F193
:100850000108814428BF3746144A3946404600F013
:1008600007FBC8EB00040546013458B1A64208D97D
:10087000002CE1D0414622465046FFF7AFFE8046AD
:10088000DBE7013F57B9504601220849FFF7A6FEB2
:100890004F443844BDE8F0870025C1E73A46414659
:1008A0005046FFF79BFE0746EDE700BF28D7000044
:1008B00010B582B00124134600940A1DFFF7D8FE3C
:1008C00002B010BD2DE9F04184B00F4601A90546E4
:1008D00001F058F939460646284601F0D7FA044691
:1008E00040B101A9284601F04DF93044204404B03C
:1008F000BDE8F0813946284601F0DEF904460028BB
:10090000EFD13946284601F009FA044698B939462C
:10091000284601F039FB04460028E2D13946284632
:1009200001F078FB04460028DBD13946284601F067
:1009300003FC0446D5E701A9284601F023F901A9E3
:100940008046284601F062FA0028CADDBB684044B0
:10095000C4180B23BC603B70002CD8D0C1E700BF8B
:100960002DE9F0410C4600294DD04669C369D0F805
:1009700018E033441A2700269E4505468E604E60D7
:100980000F7005D36ABB092310460B70BDE8F081D8
:10099000436B00F114082BB1404601F021FC237891
:1009A00033BB6B6B01336B6340462146FFF78AFF15
:1009B0002378063BDBB20A2B06D8012000FA03F3AA
:1009C00040F2BF721A4052B900261A232846A66088
:1009D000666023706FF0960100F0C6FD3046BDE8FA
:1009E000F0816FF06C0100F0BFFD3046BDE8F08192
:1009F0002846A660666027706FF0660100F0B4FDBF
:100A00003046BDE8F081A1F59B7100F0ADFD2046B8
:100A1000BDE8F08170B50C4686B071B303A91E46DF
:100A20000546FFF79DFFA8B19DF80C20062A03D3C9
:100A3000082A19D90A2A17D00B2A05D8012303FA44
:100A400002F212F45C6F07D128466FF0670100F0E4
:100A50008BFD002006B070BD28466FF0890100F0C4
:100A600083FD002006B070BD0096234603A92846EA
:100A700004AAFFF7FDFD06B070BD034900F074FD48
:100A8000204606B070BD00BFCAFEFFFF0123FFF77E
:100A9000C1BF00BFF0B50C4643686360182105462E
:100AA00085B0217017464FF0FF330026012018440F
:100AB000A06001A92846FFF705FF9DF804201A2A27
:100AC000034601A9284610D0A2681344A36001F090
:100AD00087FB0136A3680028E9D1013308BFA06075
:100AE00007B13E60A06805B0F0BD00232270A3608E
:100AF0004FF0FF36F4E700BF30B5002587B00B4656
:100B00000446856103A9684601930093029201F0AF
:100B100039F82146684601F05FF8A8424DDB03A989
:100B2000684601F02FF8A8421CDD04F1180204F118
:100B30000C016846FFF7AEFF03A9684601F0B8FB59
:100B4000D8B1684601F014F89DF80C20012A9DE800
:100B500009002DD0052A0CBF01220022181A227785
:100B600007B030BD019A65611A232261237303A97E
:100B7000684601F09DFB0028E3D103A9684601F017
:100B800049FB0546684600F0F3FF0028DCD1002D44
:100B9000DAD11A229DE8090022739DF80C206561C4
:100BA00019210125012A2B44A56021702061D1D192
:100BB0000222181A227707B030BD009AA5601A23C6
:100BC00065616260226123702373B5E72DE9F04F00
:100BD0008BB000231A2403918DF81C4008930993CD
:100BE0000646002800F0CB8003631F4600F1640333
:100BF00004930123934605935A4603990498FFF7FB
:100C00007BFF96F86430192B824600F08680F36EE5
:100C1000002B4BDD07A8049900F0BCFB3468D6F824
:100C200068802068D6F86C90002847D00C2505E035
:100C3000346860592C440C3500283FD00197009748
:100C400000234A46414600F043FA0028F0D0736F73
:100C5000326B7361B361B36FF361B36EB362002A39
:100C6000F36E34617762336204DD01224549304618
:100C7000FFF7B4FC63684FF0000286F838200022CA
:100C800032637263C6F89420002B54D030469847E4
:100C9000012896F838405CD0002C6AD000230593D8
:100CA000049B93E8070007AB83E80700D34522DDE8
:100CB000039B53440393CAEB0B0B9DE751465346EA
:100CC000BAF1000F0DD0039B03EB0A0010F8012DC1
:100CD0000D2A01F1FF3301D00A2A26D11946002B33
:100CE000F4D1039A6FF07001304600F0E7FB002367
:100CF000D3450593DCDC336B002B18DD022222493F
:100D00003046FFF76BFCF36A8BB1DB687BB1304692
:100D1000984705980BB0BDE8F08F6FF0640130463E
:100D200000F022FC00230593C0E70B46D9E70598A5
:100D30000BB0BDE8F08F06F114010EC90B449A42C6
:100D4000AED26FF06B01304600F00EFC002305932D
:100D5000A6E784F0010406F114010EC90B449A427F
:100D600003D296F83830002BEBD0059B2340059337
:100D700096E76FF0C701304600F0F6FBEBE70BB0EB
:100D8000BDE8F08F2CD70000B8D60000F8B50546B6
:100D90001446002A44D0866843689B1B9A4224DA92
:100DA000C068304401F0E0FFAB68EA6823440024E7
:100DB000AB60D45405F16406AA68012702E0AA6872
:100DC000944210D2E968121B21443046FFF794FE8A
:100DD00095F88030012B044411D095F864201A2A2C
:100DE000EDD1002BEBD13846F8BDC36800278760F2
:100DF0006FF4B5711F7000F0B7FB3846F8BD22469E
:100E0000E9682846FFF7E2FEAA680746E868121B71
:100E1000011906F02DFCAA68121BAA600024D1E774
:100E2000C2688368D4548268C168FFF7CFFEAC60A3
:100E3000F8BD00BF70B5B9B10378BBB10446461820
:100E4000002505E0B44205F101050BD023784BB134
:100E500006F02EF914F8013B1844437803F003031D
:100E6000022BEFD1284670BD0D46FBE71D46F9E782
:100E70000144884214D030B4057801396DB114466C
:100E800001E0AB420AD014F8013B002BF9D18842B3
:100E900008D010F8015F002DF1D1284630BC704712
:100EA000002070471846F9E72DE9F041DFF8E0C06F
:100EB00005460F4616469846BCE80F0086B00DF171
:100EC000040EAEE80F00DCF800309DF830408EF8DC
:100ED00000305DB9002E3AD030233B700120B04283
:100EE00036D200233B5406B0BDE8F081B8F1080FBC
:100EF00031D0B8F1100F39D0B8F1020F32D00A2139
:100F0000224B884664B3002D34DB002001E0B3FBA4
:100F1000F1F3B5FBF3F2002AF9D03C1812E0B5FB6F
:100F2000F3F20DF1180ED2B2964402FB13551EF8DF
:100F300014EC04F801EBB3FBF1F30130002BCED03D
:100F4000864205D9B042EAD306B0BDE8F08130460A
:100F500006B0BDE8F08141464FF08043002CD2D16D
:100F60002046D6E741464FF00043CBE741464FF0DD
:100F70008053C7E7B8F10A0FC7D16D421EB12D22C9
:100F80003A700120C5E73046C3E700BF00CA9A3B6C
:100F9000F0D9000030B583B00C46154605F0CAF80C
:100FA000064ACDE900012946204606F019FE2046F2
:100FB00003B0BDE8304006F063BE00BF04DA0000B5
:100FC00030B583B00D4601A9044606F0ABFF019B86
:100FD0002860181B03B030BD30B583B00D4601A9A1
:100FE000044607F069F8019B2860181B03B030BD68
:100FF0008B422FD370B5154682B00C460A4629465F
:101000001E4606F0ABFE10BB069B8BB1A6420CD071
:10101000254428460A2201A906F084FF019B5D1B96
:101020002C44A64213D1069B1860012002B070BD6B
:10103000A642FAD9254401E0A642F6D906F038F8CE
:1010400015F8013B1844013443785B07F4D40020C1
:1010500002B070BD002070472DE9F041904682B08B
:101060001E4605460C4619B14F1EC35D232B18D0F2
:1010700021462846FFF7DEFEB44205D086420ED058
:10108000002002B0BDE8F08122464146284606F025
:1010900065FEB0FA80F0400902B0BDE8F08132464A
:1010A000F3E73946FFF7C6FE089B0093044639462E
:1010B000334642462846FFF79BFF0028E1D1089BB4
:1010C00000934246334621462846FFF791FFD8E772
:1010D0002DE9F04F85B015460C460293039006F0BB
:1010E000CFFD29460746204606F068FE039AD3192D
:1010F000814613F8013C3F2B00F0DB8013785B2B1B
:1011000000F0E380002103913A2B237804BF0132E1
:1011100007F1FF373A2B00F0E0804FF0000B04EBB3
:10112000090A104600EB070840453D4679D0027891
:1011300082B1064608F1FF3E944901E0934238D05F
:1011400011F8013B002BF9D1764503D016F8012F99
:10115000002AF1D1544512D0267886B122460AF1F0
:10116000FF3E8B4901E0B34227D011F8013B002B31
:10117000F9D1964503D012F8016F002EF1D14E46F9
:10118000002D04DD431913F8013C232B4BD0002321
:101190000093224633462946FFF75EFF78B17F1B56
:1011A000C6EB090213D1B2FA82F0400905B0BDE8DE
:1011B000F08F351A00EB0508CCE7161BE0E798F82E
:1011C00000305D2B3DD0002005B0BDE8F08F002A37
:1011D00000F09E80002FF6DDA35D98F80010994284
:1011E000344440D0012FEED098F80100834245D01E
:1011F000022FE8D098F802509D42E4D15D29E2D157
:101200005B28E0D13A2BDED108F10300033F00EB6D
:101210000708013402F1FF39404504EB090A3D4655
:1012200085D1804696E7029B002B54D00E9A9345B9
:1012300036D20F9943F82B1003EB8B030BF1010B04
:10124000A6E798F801303A2BA7EB05072AD0022F22
:10125000B9DD5B2BB7D198F802303A2BB3D108F146
:101260000300033F5EE73A29BCD1013402F1FF39A4
:1012700008F10100013F04EB090A53E75B2938D06C
:101280005D29B5D13A2BB3D1039B013402F1FF396B
:10129000013B08F10200023F039304EB090A41E716
:1012A0000023CBE7039B013B08F10200023F0393BD
:1012B00038E700F1FF3914F809303F2B83D1137858
:1012C0005B2B07F1FF377FF41DAF012153780391AA
:1012D000013F0A4418E7029BB0E7B9F1010F7FF61E
:1012E0001CAF63782A2B3FF46EAF013409F1FF394C
:1012F00013E73A2B7FF47CAF039B013402F1FF39F3
:10130000013308F10200023F039304EB090A09E7E5
:10131000039E08EB0704A0453D4634D098F8001022
:1013200081B1C64604F1FF3C184A01E08B421CD053
:1013300012F8013B002BF9D1F44503D01EF8011F30
:101340000029F1D123461B785B2B16D05D2B00D1F1
:10135000013E0135A8447F1B66B9002F0FDD98F8C8
:1013600000305B2B7FF42FAFD3E7C8EB0E0508EB03
:101370000503E8E7002FCCD118E70136E9E70CBFF9
:101380000120002012E74346DDE700BF10DA00002D
:1013900018DA0000F1B1F8B54F68EFB18C68BCB154
:1013A00043689BB182688AB13D7805F0EF052A2D2C
:1013B0000CD01D782A2D09D0134413F8015D3A2D65
:1013C00002F1FF360AD03246002EF6D10120F8BDD8
:1013D0002046F8BD084670473846F8BD0D46014620
:1013E000B81A6860A3184968AB6006F041F9EDE7E8
:1013F00070B504460D460422002100F09FF9E36A0F
:1014000033B11B6823B129462046BDE87040184718
:1014100070BD00BF30B583B002A9002321F8023DA2
:1014200004463C3000F07AF9BDF906500DB103B026
:1014300030BD2946204600F077F94307F7D504224E
:101440002946204600F01EFAE36A002BEFD01B6805
:10145000002BECD029462046984703B030BD00BF92
:101460003C3000F0F9B800BF10B504463C3000F045
:10147000FBF82046BDE81040FFF7CCBF69B158B17A
:1014800010B5002204460A803C3000F011F92046D5
:10149000FFF7C0FF012010BD70470846704700BF2E
:1014A00000B583B002A9002321F8023D3C3000F0D2
:1014B00035F9BDF9060003B05DF804FB2DE9F041F4
:1014C000074682B00D460AB1002B43D002AC07F1AB
:1014D0003C0624F8045D3046214600F0CBF88046F7
:1014E00058B92146304600F0FDF84FF6A263214678
:1014F0003046ADF8043000F0BDF8194C6FF06303CE
:1015000004F1360604E00634B44210D034F9063C47
:101510009D42F8DC34F9043CAB42F4DC34F8022C94
:1015200002213846063400F009F9B442EED12946CA
:101530003846FFF75DFFB8F1000F06D017B1012361
:1015400087F8383002B0BDE8F08106493846FFF729
:101550004FFFF3E71046FF2106F030FCB6E700BF6F
:101560002EDA0000A2FEFFFF00231A46FFF7A6BFF7
:1015700010F18A0F48D00DDD10F16C0F26D029DD57
:1015800010F1670F20D02FDD10F1650F30D068B952
:101590002048704710F1E00F34D009DD10F1AA0F98
:1015A0002ED010F1970F29D0C83011D01A487047AB
:1015B00010F5AF7F2CD010F59B7F27D06FF4B5735B
:1015C0009842F3D115487047154870471548704741
:1015D0001548704710F1710F0ED010F16D0F09D042
:1015E0008330E3D1114870476830DFD1104870472D
:1015F00010487047104870471048704710487047AF
:10160000104870471048704710487047104870479E
:101610001048704760DA000090DB000078DB0000C3
:1016200080DA0000A4DA000030DB0000E4DA000019
:1016300094DA00006CDA0000BCDA0000D0DA0000B6
:1016400008DB00001CDB000040DB0000F4DA0000D7
:1016500058DB000068DB000000238160C28003804B
:1016600043808380704700BF0023038043808380D2
:10167000704700BF30B4B0F90420B0F90640A24270
:1016800011D099B1B0F900308568098825F8131098
:101690000133013293FBF4F104FB113382800380A8
:1016A000012030BC7047002030BC70470846F8E786
:1016B000B0F90430A3B110B4B0F9022019B18468B4
:1016C00034F812400C80B0F906400132013B92FB25
:1016D000F4F104FB11228380428010BC012070478A
:1016E00018467047B0F90430B3B130B4B0F90020F7
:1016F000B0F906502A44013A92FBF5F405FB142296
:1017000012B2028019B1846834F812200A80013BB9
:10171000838030BC0120704718467047B0F9043010
:101720000B800120704700BF092904D820B1243163
:1017300030F8110070470020704700BF092900D918
:10174000704710B438B10B46243310BC30F8133056
:101750001A4300F023B810BCF2E700BF092A30B4E6
:1017600004460BD8A0B102F1240530F8152011422F
:1017700005D01A46002130BCFFF7E0BF40B1B4F8F5
:101780004810204621EA030230BC002100F06AB86C
:1017900022462046002130BC00F064B870B500EB52
:1017A00041041546B4F84830A4F8482009290BD85C
:1017B000DFE801F03D171B2105252933390D802372
:1017C00005222946FFF7CAFFA4F8485070BDB0F8BB
:1017D000562025EA03031A4392B20721FFF7DEFFE2
:1017E000F2E7002100F044F8EEE720230322294627
:1017F000FFF7B4FFE8E7022100F03AF8E4E704213C
:1018000000F036F8E0E7B0F8502025EA03031A4369
:1018100092B20421FFF7C2FFD6E708231A462946F1
:10182000FFF79CFFD0E7072100F022F8CCE7B0F8E3
:101830004A2022F0400215420FD045F04005AB424D
:10184000C2D0A4F84850C36A5BB19B684BB1B0F8F2
:1018500048200121BDE87040184725F04005ADB291
:10186000B2E770BD092902D808B1FFF797BF7047EA
:1018700009290B4605D820B1243330F81320FFF78F
:101880008DBF7047092908D850B101F1240330F801
:10189000133023EA0202FFF7E5BF0022FFF7E2BFA1
:1018A0000246F8E710B598B1044600220221FFF77E
:1018B00075FF2046FFF7D8FD204600220421FFF7E0
:1018C0006DFF204600220721FFF768FF012010BDB1
:1018D000FFF7CAFD012010BD10B582B0012201A999
:1018E0000446FFF7D3F860B1BDF8042034B12046B8
:1018F0000321FFF753FF012002B010BD012002B009
:1019000010BD4FF0FF30F7E708B528B1B0F84E1022
:10191000FEF744FF012008BD0146FEF73FFF01200E
:1019200008BD00BF10B5044650B1B0F84C10FEF72A
:1019300035FF204600220221FFF730FF012010BDB5
:101940000146FEF72BFF012010BD00BFF8B506468B
:1019500000F1800500F1900755F8044F204654B17E
:1019600006F08EF9214602463046FEF7FDFEBD42E6
:10197000F2D10120F8BD012202493046FEF7F4FE03
:10198000F5E700BFA0DB000050B108B5B0F84C206F
:1019900042F0010292B20221FFF700FF012008BDD0
:1019A0000120704708B50121FEF7F8FE012008BDAF
:1019B00020B1C36A13B11B6903B1184701207047F6
:1019C00010B582B0012201A90446FFF75FF860B1AB
:1019D000BDF8042034B120460121FFF7DFFE0120CD
:1019E00002B010BD012002B010BD4FF0FF30F7E78C
:1019F00008B528B1B0F84A10FEF7D0FE012008BDA6
:101A00000146FEF7CBFE012008BD00BF08B528B196
:101A1000B0F84810FEF7C2FE012008BD0146FEF7EF
:101A2000BDFE012008BD00BF0120704710B48268D0
:101A30000468436814449C4208D91A787F2A07D85E
:101A40008A4207D001339C424360F6D810BC7047ED
:101A50008A42FBD15A1CA242426005D25A788A427D
:101A600002D102334360E6E7436010BC704700BF19
:101A700038B502688368456813449D4201D300204D
:101A800038BD044605F014FB63681A7810444278A8
:101A9000900710D02168A26801330A449342636022
:101AA00010D205F005FB63681A78104441784907A5
:101AB000F0D15F2AEED02168A2680A44934201D295
:101AC000581B38BDE81A38BD38B590E80E000B44F5
:101AD0009A4214D20446002505F0EAFA63681A789F
:101AE000104401334278520707D52168A268636029
:101AF0000A44934205F10105EED3284638BD00257E
:101B0000FBE700BF38B590E80E000B449A4214D2B0
:101B10000446002505F0CCFA63681A7810440133B6
:101B20004278920707D02168A26863600A44934212
:101B300005F10105EED3284638BD0025FBE700BFBF
:101B400090E80E000B449A4201D30020704710B574
:101B5000044605F0ADFA62681378184443785B07D1
:101B600003D501326260012010BD002010BD00BF0E
:101B70000268836840681344984234BF0020012003
:101B8000704700BF70B40568846846684E6025449D
:101B9000AE4238BF324604D31AE0AB4243601A4625
:101BA0000ED01478202C02F10103F6D0092CF4D0C9
:101BB000901B0028886007DD17230B7070BC7047EE
:101BC000981B00288860F7DC1A230B7070BC7047E4
:101BD00000238B601846F7E770B583680568426894
:101BE0004A600E462B441A219A420446317012D3A1
:101BF00000252046FFF73CFF002840DD94E80E005A
:101C000019448A4213461ED31122327075685D1B37
:101C1000B560284670BD13782A2B06D013783A2B6E
:101C2000E6D1013262600125E3E701326260FFF72D
:101C30001FFF00B32168A26863680A44934212D36D
:101C400013223270E2E711783A2902F101032046AB
:101C500027D16360FFF70CFF00281BDBCED11222D7
:101C600063683270D2E71A783F2AE9D1013316222D
:101C700063603270CAE7142263683270C6E709D124
:101C8000002DECD133781A2B14D17368B560284637
:101C9000636070BD94E80E0019448A421346B3D2C3
:101CA00011783F2901D01346AEE7531C152263601B
:101CB0003270ABE76368A9E738B50D4690E80E00CF
:101CC0000B449A426A6004D30020A8601A232B7048
:101CD00038BD044605F0ECF963681A781044427880
:101CE000900710D02168A268581C0A449042606096
:101CF00011D205F0DDF963681A781044417849077C
:101D0000F0D15F2AEED06868181A0028A860DDDDDF
:101D100009232B7038BD6B68C01AF6E72DE9F04136
:101D2000826843680F4601687B600A449342044618
:101D300004D21A782B2A44D02D2A42D02046FFF70D
:101D4000C3FE2568A36866681D44B542804608D86E
:101D5000E8B97B6863600020B8601A233B70BDE877
:101D6000F08132782E2A1CD00028F2D0334604E0CD
:101D70000133AB4263600AD21A78202AF8D0092ACC
:101D8000F6D09D4203D902F0DF02452A1CD07868C4
:101D90006660301A0028B860DFDD0A233B70BDE8BA
:101DA000F081013666602046FFF78EFE18EB000FCB
:101DB000CFD02568A36866681D44AE42E7D232786A
:101DC000D4E701336360B9E701339D42636003D810
:101DD0000FE0AB4263600CD01A4601331178202922
:101DE000F7D00929F5D0954203D92B290AD02D29FE
:101DF00008D02046FFF768FE0028C8D063687868DE
:101E0000181AC7E701326260F3E700BF38B50D4624
:101E100090E80E000B449A4204466A6002D213789E
:101E20002F2B30D02046FFF76DFEE0B960686B685D
:101E3000C01A0028A8601FDD0C232B7038BD0132AA
:101E400062602046FFF77CFE2268A3686068134446
:101E50009842ECD203782E3B012BE8D80130606029
:101E60002046FFF74FFE94E80E000B449A42E8D25A
:101E700013782D2BE5D1E2E700221A2129701046B4
:101E80006360AA6038BD01326260CBE7F8B5826852
:101E900043680D4601686B600A449342044606D3CA
:101EA00000221A21297010466360AA60F8BD1978D3
:101EB0002329F5D1591C8A426160F1D9597801F082
:101EC000DF01482919D0512933D04229E8D19F1C7C
:101ED000BA42676003D999783039012943D900267D
:101EE00008222A70002EDBD060680233C01A002856
:101EF000A8606B6045DD0230F8BD991C8A426160C4
:101F00004FF0000612D905F0D3F863681A78104430
:101F10000133427812F0440F07D02168A268636051
:101F20000A44934206F10106EDD36B6806222A703B
:101F3000D8E79F1CBA42676011D9997830390729D0
:101F40000DD8D91C8A4261600846A1EB070601F151
:101F5000010105D0007830380728F3D900E00026C9
:101F600007222A70BEE7D91C8A4261600846A1EBAD
:101F7000070601F10101B3D0007830380128AFD84D
:101F8000F2E70020F8BD00BF38B50D4690E80E001E
:101F90000B449A4204466A6007D34068801A0028BE
:101FA000A8600CDD20EAE07038BD4368197822296A
:101FB0000CD027291DD0981A0028A860F2DC002335
:101FC0001A21297018466260AB6038BD01330F22B8
:101FD00063602A70FFF72AFD2168A26863680A44DB
:101FE000934215D21A78222A12D101336A686360AB
:101FF000E1E701330E2263602A70FFF717FD2168C5
:10200000A26863680A44934202D21A78272AECD065
:102010006A68D4E72DE9F0410F46D0F800E0816806
:1020200045687D600EEB01039D42044602D22A788A
:10203000232A08D02E4600201A2200233A70666018
:10204000BB60BDE8F0816A1C9342626011D82E46E5
:10205000002093424FF0FF3398BF0023002BEBD1B9
:102060000EEB01031A2100223970BA606360BDE8EB
:10207000F0816E7805F01CF8304443785B0735D565
:10208000302E33D06268D4F800E012F8018BA168DA
:102090006260A8F13008B8F1000F0EEB010347DDD4
:1020A0009A421AD2002605F003F8626813781844A1
:1020B00006EB86064178303B11F0040F03EB460631
:1020C0001DD00132B8F1010862601ED0D4F800E0E2
:1020D000A1680EEB01039A42E5D37E689A42A6EB13
:1020E00005004FF0FF3328BF0023B7E7D4F800E026
:1020F000A1687E6862680EEB0103701BA9E7D4F843
:1021000000E0A1680EEB0103E7E72168A3680B4438
:1021100032449A42626002D97868401BA2E7931B5E
:102120005D1B0D22A8197B60BE603A70BDE8F0818E
:1021300008BF4646ECD0D0E7034600689A682DE910
:10214000F0415E684E600244964203D258680478BB
:10215000282C0ED08868002803DD10230B70BDE802
:10216000F08100221A2008705E6010468A60BDE887
:10217000F08100F1010C6245C3F804C0F1D9457843
:10218000A5F120045E2C1BD8A5F12204E4B2192C81
:102190001ED9DFF848800230824258608446E0D081
:1021A00010F8015BA5F12204A5F12007E4B25E2F2F
:1021B00028FA04FE04D8192CEED81EF0010FEBD03B
:1021C000292DCED10CF10102901B5A608860C2E724
:1021D000024F27FA04F4E407DBD5F1E7E30000023D
:1021E0008268436810B404684B602244934202D270
:1021F0001A782C2A05D000201A2388600B7010BC96
:102200007047012200240133436010460C708A603D
:1022100010BC70478268436810B404684B60224465
:10222000934202D21A783B2A05D000201A238860F4
:102230000B7010BC704701220133436010BC8A60F0
:1022400010460A70704700BF8268436810B4046883
:102250004B602244934202D21A783A2A05D00020D9
:102260001A2388600B7010BC7047012202240133CE
:10227000436010460C708A6010BC704730B405682B
:10228000846843684B602C44A34202D21C78944279
:1022900005D000201A2388600B7030BC70470122E3
:1022A00003240133436010460C708A6030BC7047D1
:1022B000024630B40468806853684B600444A3420B
:1022C00007D300241A200870204653608C6030BC6D
:1022D00070471D780D2D0BD00A2D18460FD0506871
:1022E000C01A00288860ECDD05230B7030BC7047F5
:1022F000581C8442506006D95D780A2DEFD1013018
:102300005060C01AEDE70120EBE700BF01207047E5
:102310002DE9F04F97B00BA901220546FEF720FBEF
:1023200018B9012017B0BDE8F08F002206AE0DF1FC
:10233000170303960292019200920BA9284602F01D
:1023400081F90028EDD10446804601270423029339
:1023500009AB019307AB009303960DF117034246B7
:102360000BA9284602F06EF99DF81730002B40D1DA
:10237000069B012B01D0022B67D116AB03EBC403E4
:102380000134079A43F8202C032C5ED804230293CF
:1023900009AB08F10108019307AB0093039642468D
:1023A0000DF117030BA9284602F04CF90028CDD0F7
:1023B000002CB6D000270DF1380858F83760013EE0
:1023C000304600F01BFB01462846FEF7EBF930468D
:1023D00000F038FB01462846FEF7E4F9304600F0ED
:1023E00055FB013701462846FEF7DCF9BC42E4D133
:1023F00097E7079ADDF82490DDF818C0DDF820B0E3
:102400000A984A45D4BF4FF0010A4FF0FF3A07E05F
:10241000BCF1010F1ED04A450AEB0203B6D01A46A2
:10242000BCF1020FF4D183451DDC00DA01275B46C5
:102430000DF1380E02E08342EDD00B464EF8342009
:102440000134032C07EB0301F5D94FF0FF3017B02F
:10245000BDE8F08F16AB03EBC4030134032C43F843
:10246000202CD8D9F1E74FF0FF37E0E7FFF750BF56
:1024700010B50446002000F055FA01462046FEF74C
:1024800091F9002000F072FA01462046FEF78AF921
:10249000002000F08FFA01462046FEF783F9012064
:1024A00000F040FA01462046FEF77CF9012000F0DA
:1024B0005DFA01462046FEF775F9012000F07AFA30
:1024C00001462046FEF76EF9012010BD2DE9F04FC0
:1024D00097B00BA901220546FEF742FA18B9012070
:1024E00017B0BDE8F08F002206AE0DF1170303967A
:1024F0000292019200920BA9284602F0A3F800284C
:10250000EDD10446804601270423029309AB0193D1
:1025100007AB009303960DF1170342460BA928461B
:1025200002F090F89DF81730002B40D1069B012B4C
:1025300001D0022B67D116AB03EBC4030134079A19
:1025400043F8202C032C5ED80423029309AB08F136
:102550000108019307AB0093039642460DF1170360
:102560000BA9284602F06EF80028CDD0002CB6D07A
:1025700000270DF1380858F83760013E304600F06A
:10258000D1F901462846FEF70DF9304600F0EEF984
:1025900001462846FEF706F9304600F00BFA0137EF
:1025A00001462846FEF7FEF8BC42E4D197E7079AB9
:1025B000DDF82490DDF818C0DDF820B00A984A450F
:1025C000D4BF4FF0010A4FF0FF3A07E0BCF1010F12
:1025D0001ED04A450AEB0203B6D01A46BCF1020FE0
:1025E000F4D183451DDC00DA01275B460DF1380E7E
:1025F00002E08342EDD00B464EF834200134032C28
:1026000007EB0301F5D94FF0FF3017B0BDE8F08FAD
:1026100016AB03EBC4030134032C43F8202CD8D9A8
:10262000F1E74FF0FF37E0E72DE9F04F97B00BA946
:1026300001220546FEF794F918B9012017B0BDE84C
:10264000F08F002206AE0DF117030396029201925D
:1026500000920BA9284601F0F5FF0028EDD10446B1
:10266000804601270423029309AB019307AB009333
:1026700003960DF1170342460BA9284601F0E2FF2D
:102680009DF81730002B40D1069B012B01D0022B67
:1026900067D116AB03EBC4030134079A43F8202C2F
:1026A000032C5ED80423029309AB08F101080193BF
:1026B00007AB0093039642460DF117030BA928467A
:1026C00001F0C0FF0028CDD0002CB6D000270DF1BE
:1026D000380858F83760013E304600F0FBF90146F3
:1026E0002846FEF75FF8304600F018FA0146284603
:1026F000FEF758F8304600F035FA01370146284613
:10270000FEF750F8BC42E4D197E7079ADDF8249031
:10271000DDF818C0DDF820B00A984A45D4BF4FF064
:10272000010A4FF0FF3A07E0BCF1010F1ED04A4505
:102730000AEB0203B6D01A46BCF1020FF4D183456E
:102740001DDC00DA01275B460DF1380E02E0834202
:10275000EDD00B464EF834200134032C07EB030177
:10276000F5D94FF0FF3017B0BDE8F08F16AB03EB93
:10277000C4030134032C43F8202CD8D9F1E74FF0DF
:10278000FF37E0E710B5044600F010FA20460021BC
:10279000FEF704F8012010BD034B1B6808469B6838
:1027A000012104F02FBC00BFF08EFF1F38B5074B8E
:1027B0000CB21B682046DD68FEF7DAFE22460346AF
:1027C0000349284604F0D8FB002038BDF08EFF1FD7
:1027D000DCDC000008B5054B05481B680922DB68F6
:1027E000012104F00FFC012008BD00BFF08EFF1F87
:1027F000F0DC000010B5012982B013460BD00A4A64
:1028000012680C46D06809490093224604F0B4FBD4
:10281000012002B010BD044805490068C06804F0FA
:10282000ABFB012002B010BDF08EFF1F10DD0000D9
:10283000FCDC0000014803F025B900BF6097FF1FD2
:1028400010B5044600F03CFA204610BD012801D026
:1028500000207047024B1868003018BF01207047F5
:102860003098FF1F08B501210D2000F0CDFC254850
:1028700002F024F8234B24481E226B2102F0EEFDC7
:1028800010B1224B01221A601E4B21481C226A21E2
:1028900002F0E4FD10B11F4B01221A605A220421FC
:1028A0001D4803F009F85A2203211B4803F004F8DD
:1028B0005A220221184802F0FFFF5A22012116482D
:1028C00002F0FAFF5A220021134802F0F5FF3222EB
:1028D0000521114802F0F0FF642205210E4802F0A4
:1028E000D7FF0F2205210C4802F0DCFF01210A4826
:1028F00003F064F844F24F6208490948BDE8084013
:1029000000F094B9B489FF1F5096FF1F2C98FF1F49
:10291000D896FF1F3098FF1F6097FF1F35280000D3
:102920004896FF1F10B5024638B90D4B18680030A5
:1029300018BF012028B90B4810BDFFF787FF0028FA
:10294000F9D0094C02EB021204EBC204204600212C
:1029500002F09AFE01462046BDE8104002F038BB66
:102960002C98FF1F0000B2C25096FF1F10B5024600
:1029700038B90D4B1868003018BF012028B90B4832
:1029800010BDFFF763FF0028F9D0094C02EB0212DB
:1029900004EBC2042046012102F076FE01462046E7
:1029A000BDE8104002F014BB2C98FF1F0000B2C21B
:1029B0005096FF1F10B5024638B90D4B186800300D
:1029C00018BF012028B90B4810BDFFF73FFF0028B2
:1029D000F9D0094C02EB021204EBC204204602219A
:1029E00002F052FE01462046BDE8104002F0F0BA67
:1029F0002C98FF1F0000B2C25096FF1F10B5024670
:102A000038B90D4B1868003018BF012028B90B48A1
:102A100010BDFFF71BFF0028F9D0094C02EB021292
:102A200004EBC2042046002102F00AFE01462046C3
:102A3000BDE8104002F0D6BA2C98FF1F0000B2C2C9
:102A40005096FF1F10B5024638B90D4B186800307C
:102A500018BF012028B90B4810BDFFF7F7FE00286A
:102A6000F9D0094C02EB021204EBC204204601210A
:102A700002F0E6FD01462046BDE8104002F0B2BA81
:102A80002C98FF1F0000B2C25096FF1F10B50246DF
:102A900038B90D4B1868003018BF012028B90B4811
:102AA00010BDFFF7D3FE0028F9D0094C02EB02124B
:102AB00004EBC2042046022102F0C2FD014620467A
:102AC000BDE8104002F08EBA2C98FF1F0000B2C281
:102AD0005096FF1F10B5024638B90D4B18680030EC
:102AE00018BF012028B90B4810BDFFF7AFFE002822
:102AF000F9D0094C02EB021204EBC204204600217B
:102B000002F002FE01462046BDE8104002F074BA11
:102B10002C98FF1F0000B2C25096FF1F10B502464E
:102B200038B90D4B1868003018BF012028B90B4880
:102B300010BDFFF78BFE0028F9D0094C02EB021202
:102B400004EBC2042046012102F0DEFD01462046CE
:102B5000BDE8104002F050BA2C98FF1F0000B2C22E
:102B60005096FF1F10B5024638B90D4B186800305B
:102B700018BF012028B90B4810BDFFF767FE0028D9
:102B8000F9D0094C02EB021204EBC20420460221E8
:102B900002F0BAFD01462046BDE8104002F02CBA12
:102BA0002C98FF1F0000B2C25096FF1F094B1B68F4
:102BB0009B0607D5084B094820221A6005211422DC
:102BC00002F052BE064B054820221A600521492218
:102BD00002F04ABE90F00F4088F00F406097FF1F50
:102BE00084F00F4038B50B4C204602F099F904F1FF
:102BF000880002F095F9084802F0A0FD074B084A4A
:102C00000849802400251C7118461D60BDE8384025
:102C100001F0E8BC5096FF1F6097FF1F4896FF1F0A
:102C2000FC87FF1F41280000704700BF0368F0B415
:102C3000FBB1002501249D60DC601B4C1A601C4424
:102C4000241104F144056A11032692009E60174F77
:102C50000679174B47F8241002F1604202F56142F1
:102C600005F01F05012000FA05F5E6541560F0BCDB
:102C70007047104C236843F40003236000BF0E4BE1
:102C80000E4DA4F58734A4F59E7401261E602346DC
:102C900004609C68002CD0D01033AB420360F8D1A4
:102CA000002303601846E2E7008FFCBF1488FF1F73
:102CB00044E400E03C800440007003404071034065
:102CC0000168A9B10B4BF0B40B441B110A4E0B4F1A
:102CD0000B4D46F8237003F1440202F01F04012358
:102CE0005211A340002445F822308C600460F0BCEF
:102CF000704700BF008FFCBF1488FF1F292C000005
:102D000080E100E0024A034B012111601B68184773
:102D10000C7103401488FF1F024A034B012111600C
:102D20005B6818471C7103401488FF1F024A034B5D
:102D3000012111609B6818472C7103401488FF1F04
:102D4000024A034B01211160DB6818473C710340C4
:102D50001488FF1F0020704708B5FDF795FBFDF7AD
:102D600033FC01F09DFAFAE7844641EA000313F0D0
:102D700003036DD1403A41D351F8043B40F8043B82
:102D800051F8043B40F8043B51F8043B40F8043B45
:102D900051F8043B40F8043B51F8043B40F8043B35
:102DA00051F8043B40F8043B51F8043B40F8043B25
:102DB00051F8043B40F8043B51F8043B40F8043B15
:102DC00051F8043B40F8043B51F8043B40F8043B05
:102DD00051F8043B40F8043B51F8043B40F8043BF5
:102DE00051F8043B40F8043B51F8043B40F8043BE5
:102DF00051F8043B40F8043B403ABDD2303211D385
:102E000051F8043B40F8043B51F8043B40F8043BC4
:102E100051F8043B40F8043B51F8043B40F8043BB4
:102E2000103AEDD20C3205D351F8043B40F8043B84
:102E3000043AF9D2043208D0D2071CBF11F8013B82
:102E400000F8013B01D30B8803806046704700BF48
:102E5000082A13D38B078DD010F003038AD0C3F157
:102E60000403D21ADB071CBF11F8013B00F8013B39
:102E700080D331F8023B20F8023B7BE7043AD9D3F8
:102E8000013A11F8013B00F8013BF9D20B780370CD
:102E90004B7843708B7883706046704708B5104C50
:102EA00008E0236859050DD423681A050FD4236858
:102EB000DB0411D423685803F3D500F027FB236803
:102EC0005905F1D500F00EF823681A05EFD500F08A
:102ED00009F82368DB04EDD500F004F8EAE700BF49
:102EE0003480044008B5FFF7D9FF00BF014B102222
:102EF0001A80704700200540704700BF094908B597
:102F00000B6830B16A461844A2F58052904202D252
:102F10000860184608BD04F029F80C2303604FF040
:102F2000FF3008BD2488FF1F002070474FF0FF309E
:102F3000704700BF4FF400534B600020704700BF44
:102F4000012070474FF0FF30704700BFF0B44D1EB6
:102F50002E46002400E00134B0FBF2F302FB130024
:102F6000092800F130078ABF3730F8B2C0B206F83E
:102F7000010F1846002BEED10A1953704CB110788E
:102F800015F8016F28700133E01A834202F80169D5
:102F9000F5DB0846F0BC7047704700BF10B40F4B1C
:102FA00053F8302092F880422CB1012369B182F8A5
:102FB000803010BC704703EBC0035B681A6841B9EE
:102FC00022F002021A6010BC704782F8003110BC77
:102FD000704742F003021A6010BC704794DE000094
:102FE0001C4A02EBC00301295B6811D004291BD0E5
:102FF00052F83000002280F8802229B1022920D026
:10300000032922D01A6070474FF480721A6070470B
:1030100052F830004FF4A27280F880121A601A68D9
:1030200022F020021A60704752F830104FF4A2725A
:10303000012081F880021A601A6842F020021A60AA
:10304000704740F203121A6070474FF481721A60A1
:10305000704700BF94DE0000212848D8F8B5042A44
:1030600044D8DFE802F0484B4E0345004FF41026E9
:103070002B4B03EBC0030D465C68216811F4E06143
:1030800048D0284B284A2949C3F89C2104F14042E2
:103090002748C3F8A411A2F59221264FC3F8A00136
:1030A0007C292548C3F8A871C3F8AC012CD9A2F536
:1030B00094237C2B2AD9A2F596237C2B28D9A2F520
:1030C00098237C2B29D9A2F59A227C2A27D81B4841
:1030D00072B6236823F4702343F08072C4F3840132
:1030E0001643236040F82150266062B6F8BD704751
:1030F0004FF43026BCE74FF40026B9E74FF44026E2
:10310000B6E74FF42026B3E70D48E1E70D48DFE7C7
:103110000D48DDE7FFF764FFB3E70C48D8E7F8BDDB
:1031200094DE00000082FF1FD187FF1F7987FF1FF9
:10313000A587FF1F4D87FF1F2187FF1F0089FF1FE6
:103140002888FF1F6088FF1FB088FF1FE088FF1FCF
:103150001A4B03EBC00010B4426802F14043A3F5E0
:1031600092217C2923D9A3F594217C290DD9A3F59B
:1031700096217C291FD9A3F598217C2919D9A3F57B
:103180009A237C2B11D80E4C00E00E4C72B61368BB
:103190000D4823F08773C2F3840123F4803343F096
:1031A0008073136044F8210062B610BC7047074C6E
:1031B000ECE7074CEAE7074CE8E700BF94DE0000C5
:1031C0000089FF1F6088FF1F992F00002888FF1FBC
:1031D000E088FF1FB088FF1F30B4054B054D064C3B
:1031E000002210211A602A602060196030BC7047EC
:1031F00014D0034004D0034000D00340212801D85C
:10320000FFF7CCBE704700BF212801D8FFF7E8BE0A
:10321000704700BF2DE9F843054672B6214F224B97
:10322000224A1B683C68126862B6520102D5322BF2
:1032300088BF0134A5B3C3F58C331D4EDFF8689009
:10324000DFF8688003F23F134FF47A72A6FB031392
:1032500002FB04F404EB131472B6D9F800103A68B8
:10326000D8F800E062B6C1F58C3303F23F13A6FB39
:1032700003031EF0806FC4EB13134FF47A7002D077
:10328000322988BF013200FB0233B3F57A7F04D3C1
:10329000013D05D004F57A74DEE701F001F8DBE7C3
:1032A000BDE8F8833498FF1F18E000E004ED00E06B
:1032B000398EE338F8B52D4B2D49DFF8D0E0DFF833
:1032C000D0C02C4E2C4D2D4C2D4A2E4F4FF40000CB
:1032D00018604FF0807018604FF0007018604FF069
:1032E000806018604FF0006018600020086028239C
:1032F00048F6FF71CCF80010CEF800303360136050
:103300002B6023603B60B3629362092245F8242C52
:10331000C4F8D80F05F57F65C7F8D41F07F5FF2758
:1033200007F5FA67C6F8F83F2B6006F5FF26C4F8E4
:10333000D42F05F5FD2504F5FF24386006F2F47658
:103340001148316005F5FF6504F5FD642B602360CD
:10335000026001F093F81920FFF75CFF00F03CFEDB
:1033600040F21310BDE8F840FFF754BF08E100E059
:103370000480034014800340248003402C800340D9
:103380001C8003403480034000800B400C800340CD
:1033900008800340013803280BD872B6074B53F856
:1033A000203043B100205B680130002BFBD162B6B6
:1033B0007047002070471846F9E700BFE498FF1FE8
:1033C00030B472B62B4A13781D0706D52A4B196AFA
:1033D000002936D0996A002941D053781C0706D5B8
:1033E000254B196C00293ED0996C002939D093786F
:1033F000190705D5204B196E002936D0996E89B171
:10340000D3781B0707D51C4BD3F880207AB3D3F8A9
:10341000882011213AB162B6184B00221A7030BCD4
:1034200000F056BE0D21154C154D227843F8315051
:1034300003EBC1030830013A5860227062B630BC19
:10344000704704220D4C0F4D217843F8325003EBA6
:10345000C20308304A1E5860227062B6EFE70521A9
:10346000E1E70921DFE70822ECE70C22EAE7102276
:10347000E8E700BFA4DF00000080FF1F0D99FF1FD9
:10348000C800400088004000431E032B1DD81B4A83
:10349000400140F0100030B4104472B6184CE25CA9
:1034A000032A1BD8DFE802F00212151703220D8849
:1034B000E25410F0080F14BFC823882343EA0543E1
:1034C00008310360416062B630BC704708300222A8
:1034D000EDE70522EBE708300422E8E7094A52F855
:1034E000230038B1084A52F82300416042F8231003
:1034F00062B6E9E742F82310034AF7E70080FF1FAE
:103500001C99FF1FE498FF1FF498FF1F2DE9F04F4F
:10351000DFF818B3DFF818A387B044E0AE4F4FEAE6
:10352000930807EBC809013ED9F8042003F008030B
:10353000F6B2A2F1080003F0FF04002B40F0048172
:1035400057F838301B0C99B222F8081C002B00F0F9
:10355000F280A24B22F8064C42F8044C53F8262085
:10356000002A00F06E819E4D55F8263058609D4C23
:1035700045F8260034F81630194424F8161000F0E7
:1035800087FD002800F05681974A984B19F0080FE4
:1035900000F1080018BF1346C9F8040047F8383096
:1035A00008238BF800309BF80040E4B261071BD57C
:1035B0008F4B1B78ABB18F490A7802F0FF032AB119
:1035C000013BDBB20B70002B00F0EF848A490A78D4
:1035D00002F0FF032AB1013BDBB20B70002B00F0BD
:1035E000F78004238BF8003004F0080303F0FF0297
:1035F000002B00F0D6809AF80030DBB21E098DD186
:103600009C08DFF8D49159F8342009EBC401C2F3C7
:103610008302013A49680C2A7ED8DFE802F08181F2
:103620007D7D7D7D7D7D477D7D7D07000868734DB7
:103630004A68734F734E286081B240F281606A4BD2
:103640006A604FF0010E0022814249F834303A603E
:10365000C9F81020C9F8182086F800E05E4C00F286
:10366000F480B1F5D06F80F07883B1F5817F00F000
:10367000628300F28782802900F0EC82822940F088
:103680001E83A98801F07F01042900F218835E4897
:103690005E4C89000844227062700278930740F102
:1036A000798384F800E04FF0020ED8E2544F3A6874
:1036B00042B3574B534E5749188834780D784028F9
:1036C000864645F0020828BF4FF0400E002C84F0DB
:1036D00001043470CEEB00000CBF8824C82409EB31
:1036E000C80680B285F0010544EA0E447260188075
:1036F00049F8384072440D7018B9BEF1400F18BF38
:1037000000223A603D4B1A88B2F5A06F04D1002127
:103710009A785970404B1A70404A012313703FE762
:10372000364A158842F22100854200F0FF812E4A78
:1037300049F83420F0E72C4A2C4B19F0080F18BF39
:10374000134647F838302BE700F0C2FC344A3549BD
:1037500052F82630002B00F0B68158688C5D42F894
:10376000260003F10802C9F80420032C05D8DFE87D
:1037700004F0120F150204228A551A8819F0080F56
:103780000CBF8823C82343EA024347F8383007E7D1
:1037900002228A55F1E703228A55EEE705228A556F
:1037A000EBE7E00700F11A82210600F14982A20747
:1037B00006D51D4A1D4913780220DBB2137008702C
:1037C000E30602D5194B10221A7007B0BDE8F08F3E
:1037D00000F042FD05E700BF0080FF1F9098FF1F2B
:1037E0003C98FF1FBC99FF1FC800400088004000A4
:1037F0001899FF1FA198FF1F2099FF1F0499FF1F11
:103800003898FF1FA098FF1FC02007401099FF1F86
:103810004C98FF1F0C99FF1F9820074094200740E9
:10382000E498FF1F1C99FF1F882007408020074055
:1038300090200740AB4A47F83800137801331370E3
:10384000AEE643F82600A84D91E642F221008142FF
:1038500000F0358100F2AF81B1F5086F00F01B82F6
:10386000B1F5106F40F02B82226AA049A878087049
:10387000120600F14583D9F828209D49130600F16E
:103880003A83D9F830209A49150600F12F83D9F8E8
:1038900038209749140600F12483D9F84020944930
:1038A000100600F11983D9F848209149120600F159
:1038B0000E83D9F850208E49130600F10383D9F8FE
:1038C00058208B49150600F1F882D9F86020884904
:1038D000140600F12983D9F868208549100600F103
:1038E0001E83D9F870208249120600F11383D9F89B
:1038F00078207F49130600F10883D9F880207C499D
:10390000150600F11C83D9F888207949140600F1C6
:103910001083D9F890207649100600F1C882D9F8B2
:1039200098207349120600F1BC827248724A7349AA
:10393000019073486C4D734C0497002305960295D3
:10394000804617460E461D460394386828B14468E1
:1039500000F0BEFB2046002CF9D100233B60029B07
:1039600030681A46002342F8253028B1446800F038
:10397000AFFB2046002CF9D100223260019A98F862
:1039800000301146002241F8042B039A0191023BBA
:103990004FF0000122F81510032B09D8DFE813F0CF
:1039A0004B0104004B0104004FF0010388F8003084
:1039B0000135042D07F1040706F1040608F101089A
:1039C000C3D1514C514B2278464D049F059E002196
:1039D00029701A70130700F14F8262784C49DFF8A2
:1039E00010810A7010074FF00001C9F83010C9F8B3
:1039F000381000F12B824749A2780A700021C9F8DB
:103A00005010C9F858101107DFF8E48000F1DC818C
:103A1000E2784149364C0A7000211207C9F870104B
:103A2000C9F8781000F1B98133780193002183F04F
:103A30000102C9F89010C9F8981000200290804641
:103A40008446044635490D7845F0020E09EBCE0355
:103A50000393019B002B039B5C600CBF8824C8244C
:103A600044EA080385F0010449F83E3032700C70D6
:103A7000DFF87CE02A4BDFF8A480002840F02681A4
:103A8000BCF1400F1BD144F0020C09EBCC03029CAB
:103A9000DFF85CE05C60002A40F02E81020442F016
:103AA00088029DF804304EF83C20044433700D70B9
:103AB0002346402803D100201A4A3B6010801A4A4E
:103AC0000123137028E68B5D032B00F22D8101A2E8
:103AD00052F823F0A1350000A13500002B3C000076
:103AE000313C00000D99FF1F3C98FF1F1899FF1FE4
:103AF0000080FF1FF498FF1F9098FF1FE498FF1F9E
:103B00001C99FF1FBC99FF1FA4DF0000C4200740C1
:103B1000C8200740CC200740D02007400C99FF1F49
:103B2000A098FF1F4C98FF1F94200740928892B9DD
:103B3000B14A0D784878157050708D78C8789570B6
:103B4000D07010680D79157186284D798979557175
:103B5000917100F0A580A949A94E0A78307882F0C9
:103B60000105002842F002020D700CBF8821C82117
:103B700049F8321009EBC20280F0010000213070D8
:103B80005160D4E540F20232914240F08D80A98824
:103B900001F07F01042900F292806A88002A40F037
:103BA0008E809848CDF804E089000844017841F0FF
:103BB0000201017041E742F2212081427BD1A988B4
:103BC000002940F0E480904B904A9148AC781D6801
:103BD0001560CDF804E00A4604702EE78D4B8E4840
:103BE00086491A614FF0020E80F800E0854F0A7096
:103BF0008A49196099608A4E8A4D8B4C9A610D21D1
:103C00003970FF213170DFF840E229702270874D52
:103C1000874A8EF800109F27012406F8047C5D6017
:103C20000470DA6007B0BDE8F08F00238B55B7E46D
:103C300001238B55B4E44FF0000388F80030B7E659
:103C40007049784B80220D2008701A70A2077FF50A
:103C5000B7ADAEE5774C4FF0020E22706270EA8885
:103C6000724580F0A38165490D78402A944645F05D
:103C7000020E28BF4FF0400C04EB0C0309EBCE0002
:103C80000293012344604FEA0C48CCEB02000193FD
:103C90000022C824E4E6684A664C12782270DEE707
:103CA000664A0F21117056E7B1F5A06F07D10123C5
:103CB00000220193C1E642F221329142F7D0514AEB
:103CC0000F231370544A0123137025E540287FF613
:103CD000DAAE44F002040EEBC401029E4E60BAB1AB
:103CE0009DF80410564A19703346403888F8005041
:103CF00040334EF83420DFE69DF804303370020480
:103D0000029B0D7042F0C80203444EF83C20D0E6FE
:103D10009DF804101970029B404A88F80050403802
:103D200040334EF83420C7E619F0080F0CBF0223C9
:103D300003238B5534E4A98801F07F010429BED800
:103D40006A88002ABBD12F48CDF804E089000844D6
:103D5000017821F0020101706FE63A4A5468002CA4
:103D6000ADD06888B5F804E003E00C325468002C4C
:103D7000A5D013888342F8D153887345F5D1000A42
:103D800003280CBF94F800E0B2F808E067E7CDF82C
:103D900004E052E64FF0020E61E700F079F90028E6
:103DA00000F0F18008301D4AC4F88400C4F8802077
:103DB00000F06EF9002800F0E0800830204AC9F8D1
:103DC0008C00C9F888202FE600F062F9002800F086
:103DD000E6800830114AC8F86400C8F8602000F096
:103DE00057F9002800F0D5800830154AC9F86C0052
:103DF000C9F868200CE600BFC499FF1F0C99FF1F8B
:103E0000A098FF1FC02007403498FF1FCC99FF1FC8
:103E10003099FF1F0080FF1F94200740880040005A
:103E20008820074080200740982007405098FF1FB7
:103E3000A498FF1F1099FF1F1899FF1FA198FF1F3B
:103E4000C8004000A8DF00008C20074000F020F9E7
:103E5000002800F08C8008305D4AC8F84400C8F89B
:103E6000402000F015F900287BD00830594AC9F8E5
:103E70004C00C9F84820BEE500F00AF900286AD0D5
:103E80000830534AC9F82400C9F8202000F000F98E
:103E900000285AD008304F4AC9F82C00C9F8282009
:103EA0009BE5D1F89C00083800F012F93DE5D1F807
:103EB0009400083800F00CF931E5C86D083800F0BE
:103EC00007F902E5486D083800F002F9F7E4C86C1C
:103ED000083800F0FDF8ECE4486C083800F0F8F819
:103EE000E1E4C86B083800F0F3F8D6E4486B083812
:103EF00000F0EEF8CBE4C86A083800F0E9F8C0E456
:103F0000606A083800F0E4F8B5E4C86F083800F0DB
:103F1000DFF8F2E4486F083800F0DAF8E7E4C86E3A
:103F2000083800F0D5F8DCE4486E083800F0D0F826
:103F3000D1E4D1F88C00083800F0CAF8E9E4D1F8EF
:103F40008400083800F0C4F8DDE42A78C9F82800B5
:103F500001322A7041E52A78C9F8200001322A701E
:103F600094E72A78C9F8480001322A7043E52A7894
:103F7000C8F8400001322A7073E72A78C9F888002F
:103F800001322A7050E52A78C4F8800001322A7084
:103F90000EE72A78C9F8680001322A7038E52A78D5
:103FA000C8F8600001322A7019E700BEBEF1400F68
:103FB000F44628BF4FF0400C04EB0C03029301239E
:103FC000CCEB0E004FEA0C48002201933AE500BF0B
:103FD00088004000C80040002DE9F843204C00F064
:103FE000BFFA002204F1A00023461A605A60083389
:103FF00083424FF00001F8D11A4A1B4F13681B4D42
:104000001B481C4EDFF87880DFF878C0DFF8789026
:10401000DFF878E043F480231360C4F307233B7098
:10402000C4F307432B70240EFF2302F528320470DB
:10403000114D88F8003011488CF80030D4323370BC
:10404000012389F8003070268EF800104FF40074B8
:10405000102107F8183C2E7004601170BDE8F88339
:104060000080FF1F348004409C200740B0200740A0
:10407000B42007401020074049E400E008E100E0D8
:1040800080200740882007409420074000210740F7
:1040900072B60D480268B2FA82F30B2B10DC4FF0B7
:1040A0000041D94022EA0102026062B6074803EBF0
:1040B000C303DB00C2180021C15010465160704795
:1040C00062B60020704700BF0889FF1FBC83FF1F36
:1040D0000D4B0E4AC31AA2FB03231B090B2B0CD852
:1040E0000B4A127852B972B60A484FF00041026882
:1040F00021FA03F31A43026062B67047064A127847
:10410000002AF0D0FFF75CB9BC83FF1F398EE3387B
:104110000D99FF1F0889FF1F1899FF1F044B054ABF
:104120001B6890881BB11A885B88D31A18447047A3
:104130002C99FF1FBC99FF1F2DE9F04FDFF8F89075
:1041400083B0012289F80020019169B3DFF8EC8087
:10415000364F019E8346D8F80000B0B3344D4488F2
:10416000C4F14001B14228BF314604EB010E0022E8
:104170001FFA8EFE2A70761AA0F802E000F10802FB
:1041800051B1013C224459441BF8014B02F8014F44
:104190008B45F9D1B0F802E0BEF13F0F0BD8254AAC
:1041A00005211170002ED6D10198002389F8003026
:1041B00003B0BDE8F08F4022028001460420FFF7E3
:1041C00063F90022C8F80020E9E73A782AB3184DCD
:1041D00048F601444FF0010A07E0013C16D02A7866
:1041E000A2B900F05DF83A78BAB10420FFF7D2F82E
:1041F0000728F2D889F800A0FFF74AFFC8F80000A6
:104200000028ACD10C4B013C1870E8D101234FF0D1
:10421000FF302B7003B0BDE8F08F00234FF0FF306C
:1042200089F8003003B0BDE8F08F00BF1899FF1F78
:104230002899FF1F2099FF1F2199FF1F2499FF1F15
:1042400000B583B002AB012103F8010D1846FFF75A
:1042500073FF03B05DF804FB38B50E4B1B7873B9E0
:104260000D4C216861B103F0FF054B880B800420E1
:10427000FFF70AF9256038BD084B01221A7038BDD6
:10428000FFF706FF0028F7D00146BDE838400420BC
:10429000FFF7FAB82199FF1F2499FF1F2099FF1FEC
:1042A0002DE9F843314E337893B1314F3A787AB9EA
:1042B0000122D9073A7036D49A0719D400225B0735
:1042C0003A7005D52B4B1A6812B1EFF305820AB18B
:1042D000BDE8F883EFF3108172B6186818B1264C68
:1042E0002278002A2ED00029F2D162B6BDE8F883E8
:1042F000DFF8908098F80020002ADFD0DFF888905F
:10430000002405E0013498F80030E4B2A34212D949
:1043100059F824502B6828461B6998470028F1D08B
:104320002B699847EEE7FFF7F9FEC8B9134B1B78E6
:104330001BB93378C0E73378C0E7337803F0FE0366
:104340003370B9E745691D60012323705DB1AA612F
:1043500001B962B600254577836898472570B7E7AD
:1043600000F0FCF8E2E7064B1D60F1E70C89FF1F47
:104370003199FF1F4099FF1F4499FF1F0F89FF1FAD
:104380003C99FF1F5499FF1F4899FF1F10B4EFF38A
:10439000108272B6437F33B9017F012907D0032908
:1043A0000FD00123437702B962B610BC7047124C9C
:1043B0002168A1B1114943610B68836108605861AC
:1043C000EFE70F4C216881B10E4943610B688361AF
:1043D000086058610C4B4FF080511960E1E7074BC2
:1043E0004161816120601860DBE7064B41618161BA
:1043F00020601860EEE700BF4099FF1F3C99FF1F47
:104400003499FF1F3899FF1F04ED00E010B4047FBA
:104410004160022CC26002D010BCFFF7B7BF8368B6
:1044200010BC184770B5EFF3108272B60C4C2068C0
:1044300080B10C4E00254369236073B19D6102B9C0
:1044400062B6457783689847EFF3108272B62068AA
:104450000028F0D102B962B670BD3360EFE700BF4B
:104460003499FF1F3899FF1FFFF7DCBF024A13681A
:1044700001331360704700BF3498FF1F30B42948E0
:10448000294A2A4B2A4D6024E121047011701B78BF
:10449000284C082B30D00A2B2748284937D00C2B22
:1044A0000CBF15223D2212232A60236002600B609C
:1044B000234B24491B78244ABBB101230B601360B2
:1044C000224B23491B78234A012B26D9042B0FD9D1
:1044D000082B1ED9102B94BF862387230B601360F3
:1044E0001D4B01221A7030BC70470B601360E7E768
:1044F00084230B601360F3E700F58E200F4908302A
:10450000012213232A60236002600B60D0E7192286
:10451000F7E785230B601360E2E780230B601360ED
:10452000DEE700BF00400740014007400D89FF1F44
:1045300008B003400CB0034008B00B400CB00B4077
:104540005699FF1F20B0034020B00B400E89FF1F7B
:1045500024B0034024B00B405599FF1F704700BFA3
:1045600070B584B072B6194B194D1A4870224126A5
:104570000F2480211A702E701A4604701970137857
:104580001B06FCD5144B186862B6144B144C9842A9
:1045900098BF00EB800001A998BF40000A22FEF7F7
:1045A000D5FC01A92046002311F8012B01333AB1B3
:1045B0000A2B20F8022FF7D11623237004B070BD08
:1045C0005B00DBB2237004B070BD00BF000002408E
:1045D0000700024006000240080002407F96980053
:1045E0009C89FF1F0B460146184602F0B9BC00BF6C
:1045F0002DE9F041804684B00E461F461546002442
:1046000007E0212201A93046FDF738FE04350134C8
:1046100098B101A93046FDF781FB38B1BC42F0D218
:104620002A4601A94046FCF743F9EAE7002C0CBFF3
:104630000220012004B0BDE8F0810A9B1C6004B098
:10464000BDE8F0812DE9F04F8FB00746DDF86880B6
:10465000002B47D0002945D099461B9B002B41D009
:104660001546B8F1000F05D0189B002B3AD0199BC6
:10467000002B37D00B78102B08D038466FF067012D
:10468000FCF772FF01200FB0BDE8F08F4B688C681B
:104690000133023C08A905A840220593069307941C
:1046A000FDF7ECFDB8B1002D38DB00240DF10C0A4C
:1046B0004FF0010BA5420CBF46460026CDF800A0E6
:1046C0003346189A05A93846FFF792FF90B10228A1
:1046D00001D00128D7D138466FF0A901FCF744FF7B
:1046E0000120D0E738461D49FCF73EFF01200FB0FE
:1046F000BDE8F08F0BA905A8FDF7A6FD80B9039BC7
:1047000089F800001B9AA542136008A905A802D0E9
:10471000FDF766FDA8B10134A542CBDA0020B2E76F
:1047200004AA89F800B03346009205A9199A3846C0
:10473000FFF75EFF0028CED1039B049A9342CAD1B3
:10474000E0E705A8FDF714FA0028C4D005A8FDF796
:104750000FFA0028BFD0022095E700BFCAFEFFFF76
:1047600008B506220249FBF7FFFF012008BD00BF84
:10477000FCDF000010B582B001A90446FCF77EFE04
:1047800001A92046FCF730F8012002B010BD00BF9F
:1047900010B50446FCF784FE01462046FBF7FEFFF9
:1047A000012010BD10B507210446FCF7BDFF0146EE
:1047B0002046FBF7F3FF204600220721FDF752F8C1
:1047C000012010BD10B508210446FCF7ADFF0146DD
:1047D0002046FBF7E3FF012010BD00BF10B582B0FB
:1047E000012201A90446FCF751F928B12046BDF881
:1047F00004200821FDF736F8012002B010BD00BFEB
:1048000008B500220721FDF72DF8012008BD00BFE3
:1048100090F8392090F83800101A704790F8383026
:1048200090F839209A4205D95A1C034480F8382060
:10483000187E70474FF0FF30704700BF90F8383057
:1048400090F839209A4286BF1B18187E4FF0FF302F
:10485000704700BF704700BF38B50546B0F85E002E
:1048600090B195F85D301446C3F1210294420CD802
:1048700005F13B0018442246FEF776FA95F85D30C4
:10488000234485F85D30204638BD01201446287148
:10489000EEE700BFB0F85E306BB190F85D30202BD2
:1048A00007D8C218013380F85D30012082F83B1030
:1048B0007047012303710020704700BF0023426945
:1048C00080F8383080F8393080F85C3080F85D301E
:1048D00080F85E3080F85F3006CA30B40D68046935
:1048E00043662A4383660A60A370426990F8613088
:1048F0001649146813441D7A5B7B01EBC5051B0246
:104900006D6803F4E06343F064032B6090F8623059
:1049100013449D7CDB7D01EBC5011B02496803F458
:10492000E06343F064030B6021685368194205D0CB
:10493000036928225A70036903229A7103692022AD
:104940005A71036980229A7030BC704794DE00006F
:1049500010B50269D378DBB2D90604463DD51021E3
:104960005806D17038D503F0040303F0FF02002B82
:1049700051D03D49626E00230B7084F85D30002AEF
:104980005BD0904794F85D30002B56D02369D0223D
:104990009A70236994F83B201A712369012284F8E4
:1049A0005C200222DA7010BD304B84F860009C421B
:1049B0004AD02F4B9C4252D094F8391013791F29BA
:1049C000DBB207D82848007820B16018013184F89C
:1049D000391003760223D37010BD5906C3D49178E1
:1049E00001F0100101F0FF000029DDD013F00103F8
:1049F0001ED194F85C1094F85D00884281BF4B1C76
:104A0000091984F85C3091F83B3013712369D02286
:104A10009A702269DEE7236984F83920C0229A70EF
:104A20002369114A1979012111700222DA7010BD2F
:104A3000C023937022691379CCE70122002384F804
:104A40005D2084F83B30A1E7626994F86130094940
:104A500013440322187AFEF7FFFA2269ACE7626971
:104A600094F861300449F3E75799FF1FB489FF1F99
:104A7000208AFF1FD94A0000E54A00000369DB785D
:104A800003F0200373B190F860300133DBB2012BE7
:104A900080F860301AD9426990F861301344187A6E
:104AA000FEF756BB70B5426903F0FF0590F8613020
:104AB00013440446187AFEF74BFBA36E5BB184F8EF
:104AC000385094F83900BDE87040184790F85F30CE
:104AD000002BE0D0704770BD0148FFF7CFBF00BF8B
:104AE000B489FF1F0148FFF7C9BF00BF208AFF1F1D
:104AF0002DE9F047364FDFF8DC903B68026982B061
:104B000006460093DDF8008000217825D3789B06C7
:104B10005AD53B680193019BC8EB03030F2BF5D9D2
:104B200049B1102BF2D000209070336980229A7026
:104B300002B0BDE8F087726996F861301344052130
:104B4000187AFEF761FB726996F86130134401210F
:104B500093F812A05046FEF757FB09240021504657
:104B6000FEF74CFB2B46013BFDD101215046FEF7E1
:104B700045FB2B46013BFDD1013CEFD1706996F816
:104B800061100144F0220C7A4B7B09EBC4011B023B
:104B9000496803F4E06343F064030B6096F8623005
:104BA0000344997CDB7D09EBC1011B02496803F4D6
:104BB000E06343F064030B60013AFDD13269D378BE
:104BC0009B064FF00101A4D4012002B0BDE8F0879C
:104BD0003498FF1F94DE0000F0B503691222DA70EA
:104BE0000269937803F0200385B004460D46002B3C
:104BF0005ED0B42393703C4922690B680093009EF9
:104C000005E00B680193019B9B1B042B42D8D378D2
:104C100003F0200303F0FF00002BF2D094F85D3086
:104C2000002B31D04FF0000E4FF0020C04EB0E03BE
:104C300093F83B3013710B680393039F206907E0DF
:104C40009B060DD50B680293029BDB1B052B28D816
:104C5000C378DBB203F0020202F0FF06002AEFD0B5
:104C600080F803C02669F378DBB2DF0632462DD424
:104C70009F062BD5DB0731D40EF1010E94F85D3081
:104C80005FFA8EFE7345D1D800201DBB002384F847
:104C90005E3004E09070236980229A70042005B091
:104CA000F0BD86702369802204209A7005B0F0BDA3
:104CB00003F0FF06FFF71CFF10B9042005B0F0BD9C
:104CC000236984F85F60B0229A7094E78023B37000
:104CD0000420DAE726698023B370D7E7BEF1000F1E
:104CE0000CBF02200320F6E73498FF1F2DE9F041A6
:104CF00006690025122780F8385080F83950F7707F
:104D0000D0F810C09CF802E00EF0200E88B00446E7
:104D1000884615461E46BEF1000F49D0B4238CF8D4
:104D20000230784B21691A680092DDF800E006E055
:104D30001A6801920198CEEB0000042830D8C87898
:104D400000F0200000F0FF070028F1D04FEA4802F1
:104D500042F00102D2B20A711A680292DDF808E04C
:104D6000206906E01A6803920399CEEB0101052938
:104D70002AD8C17801F0020101F0FF070029F1D023
:104D80004FF0020C80F803C02269D17811F01107AE
:104D900022D12DBB002E0CBFA0238023937003E0F3
:104DA0008F70236980229A70384608B0BDE8F08180
:104DB0000EF0FF07FFF79CFE0028F5D0236984F86A
:104DC0005F70B0229A70ACE7877023698022384602
:104DD0009A7008B0BDE8F081802393700027E3E764
:104DE000012D75D0A021917021690A79BE466746D0
:104DF0004FF0A80C1A680492049805E01A6805920E
:104E0000059A121A052A4AD8CA7802F0020202F05C
:104E1000FF08002AF2D0CF702169CA78D2B212F00E
:104E2000100F08465AD1920658D5013DEDB2012D1A
:104E300049D0BEF11F0F3BD90A79012DDAD11A688A
:104E40000692069D05E01A680792079A521B052AEA
:104E500046D8C27802F0020202F0FF01002AF2D026
:104E60000223C3702269D378DBB2D9063AD49B06F9
:104E700034D5B023BEF11F0F93703FD8226904EBE5
:104E80000E0312791A760EF1010E5FFA8EFE16B13C
:104E9000236980229A7084F839E0774684E781F8A4
:104EA0000280236980229A70774684F839E07BE794
:104EB00004EB0E0291F8048082F818800EF1010EC6
:104EC0005FFA8EFEB9E781F802C021690846B0E7B3
:104ED000A82191702069BE460279B0E7774663E762
:104EE0008170DEE710217823D170013BFDD122696A
:104EF000937803F0F7037746937055E723691B799E
:104F0000C5E700BF3498FF1F0148FFF721BD00BF70
:104F1000B489FF1F0148FFF71BBD00BF208AFF1F98
:104F2000704700BFF52100230122F0B5418106251D
:104F300002240427072603214FF0FF0EC47680F8D1
:104F4000247080F82560027242758275C2750276FF
:104F5000827642778277C27780F8232005730577BF
:104F600080F820E043738373C373037443748374C2
:104F7000C374037580F8213080F8223080F8263021
:104F800080F8293080F82A3080F82710002480F833
:104F9000281000F13C0780F82B2000F1480600F1B2
:104FA00054050246013947F8044F4FF0000E46F809
:104FB000044F02F1020245F8044FA2F86230A2F851
:104FC0006830A2F86E30EDD180F884E0F0BD00BF0B
:104FD00010B50446084601F093FCA16F01F0E4FC13
:104FE00010BD00BF10B50446084601F089FCE16F12
:104FF00001F0DAFC10BD00BF10B50446084601F010
:105000007FFCD4F8801001F0CFFC10BD4389F52B54
:1050100007D0B3F5FA7F04D0B3F5FA6F1CBFF523C0
:105020004381C27E102A0ED90223C37690F8242031
:10503000102A03D9042380F824307047044BD3404E
:10504000DB07F7D57047034BD340DA07EED4EBE725
:10505000101101001401010070B508460D46002131
:1050600014461E46FEF7CAF80C4B196804F03F04BC
:105070004FF00043CB624C63CA6A002AFCDA4FF05F
:1050800000438A6BCB624E63CB6A002BFCDA8B6BDE
:1050900028460121BDE87040FEF7B0B88C8AFF1F9A
:1050A000F8B590F876009DF8185002F03F0288425B
:1050B0000E4642F080071C4628D000213046FEF7FD
:1050C0009DF8DFF854E0DEF800104FF00043CB62AB
:1050D0004F63CB6A002BFCDA8B6B8DB123466719CB
:1050E00000204FF00044CC624863CA6A002AFCDA10
:1050F0008A6B03F8012BBB4202D0DEF80010F2E706
:1051000030460121FEF77AF82846F8BD012D88BF08
:1051100047F04007D1E700BF8C8AFF1F70B50446F7
:1051200040680125490080F83B1080F85E5080F807
:105130005D5060680668114632681E469047606898
:10514000026831461368984729466068BDE8704098
:10515000FFF742BD30B40478012C09D00CB130BC4B
:105160007047134630BC0A4690F87710FFF774BFBB
:10517000134630BC0A4690F87710FFF7CFBF00BF48
:1051800010B5037A044613B1037B5B01DBB262897D
:10519000B2F5FA7F4DD0B2F5FA6F47D0627B02F0DC
:1051A00003021A4310212046FFF7D4FF00221121E9
:1051B0002046FFF7CFFFA27BE37B002A14BF8022AB
:1051C00000222BB1237C03F00F0343F040031A436A
:1051D00012212046FFF7BEFFE27DA37D002A0CBF0F
:1051E0000022202213B142F01002D2B2637D0BB133
:1051F00042F00802237E0BB142F002021E2120463B
:10520000FFF7A8FF627CA37C002A0CBF00222022AB
:1052100013B142F01002D2B2E37C0BB142F00802AB
:1052200020461321BDE81040FFF794BF43F0180358
:10523000B4E743F00803B1E710B5C27F837F002ACB
:1052400004460CBF0022202213B142F01002D2B259
:10525000637F0BB142F008021F212046FFF77AFF5F
:10526000A27E12B1227F5201D2B2E37E082B26D059
:10527000102B21D0042B1CD094F92030002B04DB00
:1052800003F003031A4342F0040220212046FFF7F3
:1052900061FF94F8212032B194F82220520102F0EB
:1052A000600242F0800220462121BDE81040FFF755
:1052B00051BF42F01002DFE742F00802DCE742F0A3
:1052C0001802D9E730B40478012C09D00CB130BCF5
:1052D0007047134630BC0A4690F87610FFF7BCBE04
:1052E000134630BC0A4690F87610FFF717BF00BF90
:1052F00038B590F8272090F8253090F826505201C4
:105300009B0003F01C03002D02F0600242EA03023E
:1053100014BF6FF07F03002304461A4302F0FC021F
:105320002021FFF7CFFF94F82430083BDBB2082B95
:1053300096BF134A0022D25C20462121FFF7C2FF0C
:1053400094F8292094F82A30002A03F0030314BFAC
:10535000202200221A4320462221FFF7B3FF94F8AF
:1053600028209200204602F00C022321FFF7AAFF1A
:10537000204600222421BDE83840FFF7A3BF00BF2C
:1053800068E00000436870B501250E46490083F8C7
:105390003B1083F85E5083F85D5004464068036814
:1053A00011461B68984700216068FFF715FC2B46E3
:1053B0002A4631466068FFF799FC60680A4A03682C
:1053C0005B6993420BD190F8383090F839209A42BB
:1053D00008D95A19034480F83820187E70BD9847C0
:1053E000C0B270BDFF2070BD1D48000010B503782D
:1053F000012B84B00A460FD013B1FF2004B010BDBA
:10540000012390F8771000930DF10F03FFF748FE8A
:105410009DF80F0004B010BD90F87710FFF7B2FFB1
:10542000ECE700BF10B50378012B84B00A460FD01B
:1054300013B1FF2004B010BD012390F87610009343
:105440000DF10F03FFF72CFE9DF80F0004B010BD07
:1054500090F87610FFF796FFECE700BF38B501250E
:1054600043604170827080F8771080F87620057074
:105470000446FFF757FDFFF7C9FD4389B3F5FA7FEF
:1054800052D0B3F5FA6F4CD0F52B47D094F82430B6
:10549000043B0C2B0BD8DFE803F03D0A0A0A070A8D
:1054A0000A0A390A0A0A3500264BC4F88030E37E1E
:1054B000023B0E2B0BD8DFE803F0220A080A0A0A87
:1054C0001F0A0A0A0A0A0A0A1C001F4BE3670F2177
:1054D0002046FFF7A7FF0F2105462046FFF786FF6E
:1054E00045EA002005B246F63D039D421FD000204C
:1054F00038BD164BE367EAE7154BE367E7E7154B63
:10550000E367E4E7144BC4F88030D0E7134BC4F8EA
:105510008030CCE7124BC4F88030C8E7114B83676A
:10552000B4E7114B8367B1E7104B8367AEE72046C2
:10553000FFF726FE2046FFF77FFE2046FFF7D8FE46
:10554000284638BD240B983940DAFF38B0E33F3A9B
:1055500040DA7F3940DA7F38240B183A9F71E139FD
:10556000F7CC1239295C0F3C295C8F3D295C8F3CBC
:105570002DE9F0410F4641689DF818800446012648
:10558000780081F83B0081F85E6081F85D606068BA
:10559000056842F080012A681D4690476068002136
:1055A000FFF71AFB18B100263046BDE8F0813346FC
:1055B000394642466068FFF799FB40450646F2D1FE
:1055C0000028F1D0DFF83C802F1810E090F8383038
:1055D00090F839209A4203F1010E00EB03010ED935
:1055E00080F838E0087E05F8010BAF42DCD0606837
:1055F00003685B694345E9D09847C0B2F3E7FF20F1
:10560000F1E700BF1D48000030B50D4601780129C3
:1056100083B00CD011B1FF2003B030BD90F87710EB
:10562000009313462A46FFF73BFD03B030BD90F8C8
:105630007710009313462A46FFF79AFFECE700BF66
:1056400030B50C46143183B0490001F0FE0102234D
:1056500001AA0546FFF7D8FF022802D0002003B0B8
:1056600030BD9DF805009DF8043095F8842043EA8C
:10567000002000B2002AF2D005EB4404B4F86A30EE
:10568000C01A00B203B030BD30B50C460C3183B047
:10569000490001F0FE01022301AA0546FFF7B4FF0D
:1056A000022802D0002003B030BD9DF805009DF80F
:1056B000043095F8842043EA002000B2002AF2D09A
:1056C00005EB4404B4F86430C01A00B203B030BD36
:1056D00030B50D460178012983B00CD011B1FF20FF
:1056E00003B030BD90F87610009313462A46FFF7BA
:1056F000D7FC03B030BD90F87610009313462A46CD
:10570000FFF736FFECE700BF00B5143183B0490066
:1057100001F0FE01022301AAFFF7DAFF022803D0FD
:10572000002003B05DF804FB9DF805009DF80430EF
:1057300043EA002000B203B05DF804FBF8B504466C
:1057400000F056FAA01D00F053FA04F10C0000F02E
:105750004FFA04F1120000F04BFA04F1180000F0C7
:1057600047FA04F11E0000F043FAA527B4214926A8
:1057700000230122A7624FF00F0EA6630A27616281
:10578000E1622163616332265A21E3632364A364E7
:10579000E3642365A365C4F844E067656367204656
:1057A0002667E16521666166A166E166C4F890300E
:1057B000A267E267C4F88020C4F88420C4F8882077
:1057C000C4F88C20F8BD00BF38B50D460C2001216F
:1057D00005EB45051446FDF711FDED0001D0013D37
:1057E000FDD100210C2004EB4404FDF707FDE4008B
:1057F00001D0013CFDD138BDF0B51A4C85B023680D
:105800000193019D23680293029B5B1BB3F5FA6F22
:1058100006460CD24FF4E17250213046FFF7D4FF18
:1058200023680293029B5B1BB3F5FA6FF2D32368E4
:105830000393039B41F26F775B1BBB420BD84FF482
:10584000D7724B213046FFF7BFFF23680393039BBA
:105850005B1BBB42F3D901210C20FDF7CFFC05B047
:10586000F0BD00BF3498FF1F10B400EB8100036C43
:10587000446A934203DC94422346A8BF1346C0F80F
:10588000B030581AB0FA80F0400910BC704700BF21
:10589000B42AA8BFB42200EB810122EAE2724A6274
:1058A000704700BFB42AA8BFB422103122EAE272C6
:1058B00040F82120704700BFB42AA8BFB42200EBF3
:1058C000810122EAE272CA65704700BF2DE9F04704
:1058D000044691468A469846089F099E0A9D00F014
:1058E0000DFA4946A01DC4F894A0C4F8B0A000F079
:1058F00005FA414604F10C00C4F89890C4F8B4903D
:1059000000F0FCF9394604F11800C4F89C80C4F892
:10591000B88000F0F3F9314604F11200C4F8A07029
:10592000C4F8BC7000F0EAF9C4F8A460C4F8C06020
:10593000294604F11E0000F0E1F9C4F8A850C4F8AB
:10594000C450BDE8F08700BF70B5044684B00D4672
:105950000C200121FDF758FC00210C20FDF74EFC26
:105960000B21204600F0C4F90A21A01D00F0C0F967
:10597000092104F10C0000F0BBF9052104F112002B
:1059800000F0B6F9062104F1180000F0B1F904F1B5
:105990001E00032100F0ACF955B104F1680061C8A4
:1059A00004F15C010EC98DE861002046FFF78EFF0F
:1059B000204604B0BDE87040FFF71EBFFFF7C4BF2C
:1059C00070B5044615461E4605290DD8DFE801F0DE
:1059D0000D17222D380311461E3000F08FF9C4F840
:1059E000A8500EB1C4F8C45070BD114600F086F93D
:1059F000C4F89450002EF7D0C4F8B05070BD1146D2
:105A0000063000F07BF9C4F89850002EECD0C4F8B2
:105A1000B45070BD11460C3000F070F9C4F89C50C1
:105A2000002EE1D0C4F8B85070BD1146183000F017
:105A300065F9C4F8A050002ED6D0C4F8BC5070BD93
:105A40001146123000F05AF9C4F8A450002ECBD001
:105A5000C4F8C05070BD00BF10B400EB8103D3F890
:105A60009440D3F8B02094420AD09B6FCCBF4FF043
:105A7000FF32012203FB0242002310BCFFF7A0BF4C
:105A800010BC704710B500210446FFF7E5FF204623
:105A90000121FFF7E1FF20460221FFF7DDFF20464D
:105AA0000321FFF7D9FF20460421FFF7D5FF204649
:105AB0000521BDE81040FFF7CFBF00BFF0B4464B53
:105AC000464A186BDC6A01791170454922790A70DF
:105AD0009A6A00790870002A46D05968C9688A42D3
